:100000000C9435000C945D000C945D000C9451012F
:100010000C9451010C9451010C945D000C945D0002
:100020000C945D000C945D000C945D000C945D00DC
:100030000C945D000C945D000C945D000C945D00CC
:100040000C9407010C945D000C945D000C945D0011
:100050000C945D000C945D000C945D000C945D00AC
:100060000C945D000C945D005B0111241FBECFEF6A
:10007000D8E0DEBFCDBF21E0AAE0B1E001C01D9213
:10008000A734B207E1F711E0A0E0B1E0EEE2F4E05E
:1000900002C005900D92AA30B107D9F710E0C5E370
:1000A000D0E004C02197FE010E94E801C433D107CB
:1000B000C9F70E949E010C9415020C9400000E9446
:1000C000EE014F925F926F927F92EF92FF920F93A9
:1000D0001F93CF93DF93CDB7DEB7A1970FB6F894F8
:1000E000DEBF0FBECDBF7C01FA01CB0119A22230C9
:1000F00008F42AE08E010F5D1F4F422E512C612C17
:10010000712CBF01A30192010E94F301F901CA0100
:10011000015011096A3014F4605D01C0695CD801B6
:100120006C93232B242B252B61F70115110591F0DE
:10013000F80101900020E9F73197AF01401B510B06
:10014000D701ED91FC910280F381E02DB801C70148
:10015000099502C080E090E0A1960FB6F894DEBF4A
:100160000FBECDBFDF91CF911F910F91FF90EF9008
:100170007F906F905F904F9008958F929F92AF9273
:10018000BF92CF92DF92EF92FF920F931F93CF9384
:10019000DF937C01EB016C0182E0C80ED11C4701AA
:1001A000E5E08E0E911C00E010E0F60141916F0138
:1001B00050E060E070E02AE0CE010E9461005C0146
:1001C000E881F9810190F081E02D6EE2CE01099580
:1001D0008A0D9B1D080F191FC814D90431F7F701A8
:1001E000458150E060E070E02AE0CE010E946100AD
:1001F000800F911FDF91CF911F910F91FF90EF9092
:10020000DF90CF90BF90AF909F908F9008951F92F6
:100210000F920FB60F9211242F933F938F939F93BA
:10022000AF93BF938091110190911201A09113019E
:10023000B09114013091100123E0230F2D3720F4E9
:100240000196A11DB11D05C026E8230F0296A11D30
:10025000B11D209310018093110190931201A0937E
:100260001301B093140180910C0190910D01A091A4
:100270000E01B0910F010196A11DB11D80930C01DB
:1002800090930D01A0930E01B0930F01BF91AF9118
:100290009F918F913F912F910F900FBE0F901F90C4
:1002A00018951F920F920FB60F9211240F900FBE48
:1002B0000F901F901895E5E1F1E088E091E09183BF
:1002C00080831282138214821582EBE1F1E0918324
:1002D00080831282138214821582E1E2F1E091831D
:1002E00080831282138214821582E7E2F1E0918307
:1002F00080831282138214821582E5E3F1E09183F8
:1003000080831282138214821582EDE2F1E09183E0
:1003100080831282138214821582EBE3F1E09183D1
:1003200080831282138214821582E1E4F1E09183CA
:10033000808312821382148215820895789484B582
:10034000826084BD84B5816084BD85B5826085BDD1
:1003500085B5816085BD80916E00816080936E005F
:100360001092810080918100826080938100809151
:100370008100816080938100809180008160809302
:1003800080008091B10084608093B1008091B000C2
:1003900081608093B00080917A00846080937A00BD
:1003A00080917A00826080937A0080917A008160E7
:1003B00080937A0080917A00806880937A0010920E
:1003C000C100C0E0D0E02097F1F30E940000FBCF15
:1003D000EE0FFF1F0590F491E02D099481E090E06D
:1003E000F8940C941502A1E21A2EAA1BBB1BFD0166
:1003F0000DC0AA1FBB1FEE1FFF1FA217B307E40704
:10040000F50720F0A21BB30BE40BF50B661F771F5B
:10041000881F991F1A9469F760957095809590953B
:0E0420009B01AC01BD01CF010895F894FFCF00
:0A042E000100000000000000BD0006
:00000001FF
