:100000000C9462000C948A000C948A000C946D0687
:100010000C946D060C946D060C948A000C948A0066
:100020000C948A000C948A000C948A000C948A0028
:100030000C948A000C948A000C948A000C948A0018
:100040000C94CB050C948A000C943B060C9415067A
:100050000C948A000C948A000C948A000C948A00F8
:100060000C948A000C948A0008000000BE92244977
:10007000123EABAAAA2ABECDCCCC4C3E00000080DA
:10008000BEABAAAAAA3E00000000BF000000803F4D
:100090000000000000084178D3BB4387D1133D190D
:1000A0000E3CC3BD4282AD2B3E68EC8276BED98F3A
:1000B000E1A93E4C80EFFFBE01C4FF7F3F0000007E
:1000C0000000770611241FBECFEFD8E0DEBFCDBF02
:1000D00023E0A0EFB1E001C01D92A834B207E1F720
:1000E00011E0A0E0B1E0E2E4F7E102C005900D927A
:1000F000A03FB107D9F710E0C2E6D0E004C02197D5
:10010000FE010E94B108C136D107C9F70E94E60678
:100110000C949F0B0C9400008E3008F08E5087706A
:10012000806480937C0080917A00806480937A0060
:1001300080917A0086FDFCCF809178002091790033
:1001400090E0922B08953FB7F894809175029091BA
:100150007602A0917702B091780226B5A89B05C0DF
:100160002F3F19F00196A11DB11D3FBFBA2FA92F36
:10017000982F8827820F911DA11DB11DBC01CD01B3
:1001800042E0660F771F881F991F4A95D1F708959F
:100190008F929F92AF92BF92CF92DF92EF92FF9297
:1001A0006B017C010E94A3004B015C01C114D104CE
:1001B000E104F104F1F00E94A300DC01CB018819F5
:1001C0009909AA09BB09883E9340A105B10570F3BE
:1001D00021E0C21AD108E108F10888EE880E83E018
:1001E000981EA11CB11CC114D104E104F10419F73B
:1001F000DDCFFF90EF90DF90CF90BF90AF909F90BA
:100200008F900895DC01ED91FC910190F081E02D3B
:100210000994CF92DF92EF92FF920F931F93CF93A7
:10022000DF936C017A018B01C0E0D0E0CE15DF05D1
:1002300089F0D8016D918D01D601ED91FC9101906D
:10024000F081E02DC6010995892B11F47E0102C0D1
:100250002196ECCFC701DF91CF911F910F91FF90B5
:10026000EF90DF90CF900895FC01918D828D9817CB
:1002700061F0828DDF01A80FB11D5D968C91928D8A
:100280009F5F9F73928F90E008958FEF9FEF089587
:10029000FC01918D828D981731F0828DE80FF11D50
:1002A000858D90E008958FEF9FEF0895FC01918D6B
:1002B000228D892F90E0805C9F4F821B91098F7364
:1002C000992708958FE792E00E94560121E0892B3B
:1002D00009F420E0822F0895FC01848DDF01A80F2E
:1002E000B11DA35ABF4F2C91848D90E001968F735E
:1002F0009927848FA689B7892C93A089B1898C917D
:1003000080648C93938D848D981306C00288F38942
:10031000E02D80818F7D80830895EF92FF920F936F
:100320001F93CF93DF93EC0181E0888F9B8D8C8DA1
:10033000981305C0E889F989808185FD24C0F62ECF
:100340000B8D10E00F5F1F4F0F731127E02E8C8D68
:10035000E8120CC00FB607FCFACFE889F989808152
:1003600085FFF5CFCE010E946C01F1CF8B8DFE0190
:10037000E80FF11DE35AFF4FF0820B8FEA89FB89EA
:100380008081806207C0EE89FF896083E889F989EE
:1003900080818064808381E090E0DF91CF911F9124
:1003A0000F91FF90EF900895CF93DF93EC01888D2C
:1003B0008823C9F0EA89FB89808185FD05C0A88969
:1003C000B9898C9186FD0FC00FB607FCF5CF8081EF
:1003D00085FFF2CFA889B9898C9185FFEDCFCE0139
:1003E0000E946C01E7CFDF91CF91089580E090E00B
:1003F000892B29F00E94620181110C94000008955C
:100400000E94780B6115710579F0FB0101900020C5
:10041000E9F73197AF01461B570BDC01ED91FC91D9
:100420000280F381E02D099480E090E00895BC0102
:100430008FE792E00C9402024F925F926F927F924C
:10044000EF92FF920F931F93CF93DF93CDB7DEB759
:10045000A1970FB6F894DEBF0FBECDBF7C01FA01A5
:10046000CB0119A2223008F42AE08E010F5D1F4F44
:10047000422E512C612C712CBF01A30192010E94CC
:100480007D0BF901CA01015011096A3014F4605D55
:1004900001C0695CD8016C93232B242B252B61F7B9
:1004A000B801C7010E940202A1960FB6F894DEBF00
:1004B0000FBECDBFDF91CF911F910F91FF90EF90B5
:1004C0007F906F905F904F9008954F925F926F92E0
:1004D0007F928F929F92AF92BF92CF92DF92EF92D4
:1004E000FF926B017C01B42E9B01AC010E943E0B7C
:1004F000882319F06AE171E027C026013701E894EA
:1005000077F82FEF3FEF4FE75FE7C301B2010E949B
:100510003E0B81110DC02FEF3FEF4FE75FE7C301A7
:10052000B2010E94240918161CF46EE171E00CC09F
:100530002FEF3FEF4FE75FE4C701B6010E947C0A4F
:10054000181694F462E271E08FE792E0FF90EF906A
:10055000DF90CF90BF90AF909F908F907F906F90E3
:100560005F904F900C9402022FEF3FEF4FE75FEC4C
:10057000C701B6010E94240987FDE4CF20E030E0E6
:10058000A901C701B6010E94240987FF0BC06DE2D3
:100590008FE792E00E9402014C01F7FAF094F7F81D
:1005A000F09402C0812C912CA12C60E070E080E0DE
:1005B0009FE3AB1441F020E030E040E251E40E94C0
:1005C0002909A394F6CF9B01AC01C701B6010E9493
:1005D000B8082B013C010E949B096B017C010E9421
:1005E000CA099B01AC01C301B2010E94B7082B01EB
:1005F0003C012AE0B701A6018FE792E00E941C02AD
:100600007C01E80CF91CBB2039F06EE28FE792E028
:100610000E940201E80EF91EDB2CDD2031F120E002
:1006200030E040E251E4C301B2010E94D10A2B0143
:100630003C010E949B094B01A12CB12C2AE0B50181
:10064000A4018FE792E00E941C02E80EF91EC5018A
:10065000B4010E94CA099B01AC01C301B2010E940E
:10066000B7082B013C01DA94D8CFC701FF90EF9077
:10067000DF90CF90BF90AF909F908F907F906F90C2
:100680005F904F900895CF93DF9342E00E94650200
:10069000EC0166E271E08FE792E00E9402028C0FAB
:1006A0009D1FDF91CF910895CF92DF92EF92FF923D
:1006B000CF93DF936C01990FEE08FF08F7FE16C089
:1006C0006DE28FE792E00E940201EC01442755277A
:1006D000BA014C195D096E097F092AE08FE792E0A3
:1006E0000E941C027C01EC0EFD1E08C02AE0B7012E
:1006F000A6018FE792E00E941C027C0166E271E095
:100700008FE792E00E9402028E0D9F1DDF91CF9134
:10071000FF90EF90DF90CF9008958F929F92AF92CD
:10072000BF92CF92DF92EF92FF920F931F93CF93DE
:10073000DF937C018B016C0182E0C80ED11C470164
:10074000E5E08E0E911CC0E0D0E0F60141916F0112
:1007500050E060E070E02AE0C8010E941C025C01E9
:100760006EE2C8010E9402018A0D9B1DC80FD91FAD
:10077000C814D90451F7F701458150E060E070E0FA
:100780002AE0C8010E941C028C0F9D1FDF91CF91AF
:100790001F910F91FF90EF90DF90CF90BF90AF909F
:1007A0009F908F9008957F928F929F92AF92BF9269
:1007B000CF92DF92EF92FF920F931F93CF93DF932D
:1007C00000D000D0CDB7DEB78C01ADB6BEB6FC010F
:1007D000728020853185220F331F8DB79EB7821B13
:1007E000930B0FB6F8949EBF0FBE8DBFEDB7FEB74B
:1007F00031967F01872D0E948C006701812C912CFE
:10080000F80160857185861697068CF4872D0E9405
:100810008C00F601819391936F016AE070E080E0B3
:1008200090E00E94C800FFEF8F1A9F0AE9CF20E0F6
:1008300030E080E090E0261737074CF4F701419153
:1008400051917F01840F951F2F5F3F4FF4CF0E947E
:1008500089084B010FB6F894BEBE0FBEADBEF801BD
:1008600080816B01770FEE08FF08882309F4F7C039
:1008700069E271E08FE792E00E94020266E271E0B5
:100880008FE792E00E94020280E491E00E9417024A
:10089000C4010E9454038CE491E00E941702F80105
:1008A00066897789808D918D0E9443038EE591E062
:1008B0000E941702F80146855785608971892AE0F0
:1008C0008FE792E00E941C0266E271E08FE792E0FF
:1008D0000E94020283E791E00E941702F8016481FE
:1008E0007581868197810E94430380E891E00E9490
:1008F0001702C4010E945403C701B6010E94CC092B
:100900009B01AC0160E070EC8FE794E40E94290940
:1009100020E030E040E85FE30E94B7089B01AC01B3
:1009200089E891E029833A834B835C830E94170214
:1009300029813A814B815C81CA01B9010E9443033C
:1009400029813A814B815C81F80166897789808DA4
:10095000918D0E9429096B017C0182E991E00E943E
:100960001702C701B6010E944303F8016685778527
:10097000808991890E94CA099B01AC01C701B60117
:100980000E9429096B017C0188EA91E00E9417020C
:10099000C701B6010E944303C701B6010E94890A3C
:1009A0006B017C0181EB91E00E941702C701B60147
:1009B0000E944303F8012481358146815781C70194
:1009C000B6010E9429096B017C018AEB91E00E942B
:1009D0001702C701B6010E94430323E333E948E845
:1009E00053E4F80162897389848995890E94B80863
:1009F0009B01AC0160E070E080E89FE30E94290960
:100A00009B01AC01C701B6010E94B8086B017C01D3
:100A100083EC91E00E941702C701B6010E944303D4
:100A2000F801818181110AC0A701960160E070E0A0
:100A300080E89FE30E9429096B017C018CEC91E026
:100A40000E941702C701B6010E94430385ED91E0A1
:100A50000E941702C701B6010E94430364C0F80157
:100A600081818823E1F0C701B6010E94CC099B0176
:100A7000AC0160E070E080E894E40E94290920E085
:100A800030E040E85FE30E94B7089B01AC01F80149
:100A900066897789808D918D0E94290919C0C701C7
:100AA000B6010E94CC099B01AC0160E070E080E8D7
:100AB00094E40E94290920E030E040E85FE30E94CE
:100AC000B708F80126893789408D518D0E94D10AD7
:100AD0000E94890A6B017C01F80122A133A144A183
:100AE00055A10E94D10AA70196010E94D10AF801DE
:100AF000268D378D40A151A10E94B808A70196010B
:100B00000E94D10AF801228D338D448D558D0E94AB
:100B1000B8089B01AC0160E070E080E89FE30E94B0
:100B200029096B017C01F8012285338544855585AF
:100B3000C701B6010E94B80823E333E948E853E44B
:100B40000E94B70820E030E040E151E40E94D10A61
:100B500020E030E040EA50E40E94290920E030E043
:100B600040E052E40E94B8080FB6F894BEBE0FBE33
:100B7000ADBE0F900F900F900F90DF91CF911F910E
:100B80000F91FF90EF90DF90CF90BF90AF909F902C
:100B90008F907F9008951F920F920FB60F9211249D
:100BA0002F933F938F939F93AF93BF938091710245
:100BB00090917202A0917302B09174023091700210
:100BC00023E0230F2D3720F40196A11DB11D05C090
:100BD00026E8230F0296A11DB11D20937002809379
:100BE000710290937202A0937302B0937402809189
:100BF000750290917602A0917702B09178020196E9
:100C0000A11DB11D8093750290937602A093770287
:100C1000B0937802BF91AF919F918F913F912F91A7
:100C20000F900FBE0F901F9018951F920F920FB646
:100C30000F9211242F933F934F935F936F937F9362
:100C40008F939F93AF93BF93EF93FF938FE792E0C0
:100C50000E946C01FF91EF91BF91AF919F918F9195
:100C60007F916F915F914F913F912F910F900FBEA8
:100C70000F901F9018951F920F920FB60F9211248C
:100C80002F938F939F93EF93FF93E0918F02F091B7
:100C900090028081E0919502F091960282FD12C04F
:100CA0009081809198028F5F8F73209199028217B3
:100CB00051F0E0919802F0E0E158FD4F958F80935C
:100CC000980201C08081FF91EF919F918F912F91A8
:100CD0000F900FBE0F901F9018951F920F920FB696
:100CE0000F9211240F900FBE0F901F901895E9E7F7
:100CF000F2E088E191E09183808312821382148272
:100D00001582EFE7F2E01382128248EE53E060E0D2
:100D100070E0448355836683778328E031E0318334
:100D2000208325EC30E03587248724EC30E03787BA
:100D3000268720EC30E0318B208B21EC30E0338BA8
:100D4000228B22EC30E0358B248B26EC30E0378B85
:100D5000268B118E128E138E148EECE1F3E09183AC
:100D600080831282138214821582E2E2F3E091837F
:100D700080831282138214821582E8E2F3E0918369
:100D800080831282138214821582E6E3F3E091835A
:100D900080831282138214821582EEE2F3E0918343
:100DA00080831282138214821582ECE3F3E0918334
:100DB00080831282138214821582E2E4F3E091832D
:100DC000808312821382148215820895789484B5E8
:100DD000826084BD84B5816084BD85B5826085BD37
:100DE00085B5816085BD80916E00816080936E00C5
:100DF00010928100809181008260809381008091B7
:100E00008100816080938100809180008160809367
:100E100080008091B10084608093B1008091B00027
:100E200081608093B00080917A00846080937A0022
:100E300080917A00826080937A0080917A0081604C
:100E400080937A0080917A00806880937A00109273
:100E5000C10021E020934B0210924A0285E090E00D
:100E6000909353028093520210924D0210924C02C2
:100E70004BEE5FEF63E97AE34093640250936502BF
:100E8000609366027093670243E75FE765E779E383
:100E9000409368025093690260936A0270936B02F8
:100EA00049E557E46CEB73E340936C0250936D0299
:100EB00060936E0270936F0240E050E46CE176E460
:100EC00040936002509361026093620270936302E8
:100ED000109254021092550210925602109257022C
:100EE000209321021092200241E050E0509323020F
:100EF0004093220234ED432E3BE8532E30E9632E1B
:100F00003AE3732E40923A0250923B0260923C02C6
:100F100070923D0241E7842E4FE0942E45E0A42ECE
:100F200049E3B42E80923E0290923F02A09240028A
:100F3000B09241025EE2C52E52E7D52E53E4E52E73
:100F400054E3F52EC0924202D0924302E092440252
:100F5000F092450240E054E264E779E440933602BF
:100F600050933702609338027093390290932902AC
:100F70008093280210922A0210922B0210922C02C7
:100F800010922D022093F7011092F60122E030E03A
:100F90003093F9012093F80140921002509211020F
:100FA00060921202709213028092140290921502C3
:100FB000A0921602B0921702C0921802D0921902A3
:100FC000E0921A02F0921B0240930C0250930D0221
:100FD00060930E0270930F029093FF018093FE01C5
:100FE000109200021092010210920202109203026B
:100FF000E0918F02F091900282E08083E0918B0279
:10100000F0918C021082E0918D02F0918E028FECB3
:10101000808310929702E0919302F091940286E00F
:101020008083E0919102F0919202808180618083BF
:10103000E0919102F0919202808188608083E0913A
:101040009102F0919202808180688083E091910208
:10105000F091920280818F7D80838AE492E00E94E9
:10106000D3036093460270934702809348029093A3
:10107000490280E292E00E94D30360931C027093C5
:101080001D0280931E0290931F0286EF91E00E9442
:10109000D3036093F2017093F3018093F401909372
:1010A000F50160914602709147028091480290914B
:1010B000490242E00E9465028DEE91E00E94170213
:1010C00060911C0270911D0280911E0290911F027E
:1010D00042E00E9465028DEE91E00E94170260914D
:1010E000F2017091F3018091F4019091F50142E0D9
:1010F0000E94650266E271E08FE792E00E940202C0
:1011000068E873E180E090E00E94C8000E94F60168
:10111000A4CF97FB072E16F4009407D077FD09D0D3
:101120000E949D0807FC05D03EF4909581959F4F45
:101130000895709561957F4F0895AA1BBB1B51E1DF
:1011400007C0AA1FBB1FA617B70710F0A61BB70B37
:10115000881F991F5A95A9F780959095BC01CD01DC
:101160000895EE0FFF1F0590F491E02D099450585B
:10117000BB27AA270E94CF080C94420A0E94340A77
:1011800038F00E943B0A20F039F49F3F19F426F40E
:101190000C94310A0EF4E095E7FB0C942B0AE92F2E
:1011A0000E94530A58F3BA1762077307840795071A
:1011B00020F079F4A6F50C94750A0EF4E0950B2E48
:1011C000BA2FA02D0B01B90190010C01CA01A00199
:1011D0001124FF27591B99F0593F50F4503E68F1F4
:1011E0001A16F040A22F232F342F4427585FF3CF35
:1011F000469537952795A795F0405395C9F77EF406
:101200001F16BA0B620B730B840BBAF09150A1F04E
:10121000FF0FBB1F661F771F881FC2F70EC0BA0FD4
:10122000621F731F841F48F4879577956795B7955C
:10123000F7959E3F08F0B0CF9395880F08F0992757
:10124000EE0F9795879508950E94070A08F481E0AC
:1012500008950E943D090C94420A0E943B0A58F0EE
:101260000E94340A40F029F45F3F29F00C942B0AC5
:1012700051110C94760A0C94310A0E94530A68F3B7
:101280009923B1F3552391F3951B550BBB27AA273F
:1012900062177307840738F09F5F5F4F220F331F79
:1012A000441FAA1FA9F335D00E2E3AF0E0E832D041
:1012B00091505040E695001CCAF72BD0FE2F29D044
:1012C000660F771F881FBB1F261737074807AB0716
:1012D000B0E809F0BB0B802DBF01FF2793585F4F8B
:1012E0003AF09E3F510578F00C942B0A0C94760A44
:1012F0005F3FE4F3983ED4F3869577956795B7956D
:10130000F7959F5FC9F7880F911D9695879597F977
:101310000895E1E0660F771F881FBB1F62177307F0
:101320008407BA0720F0621B730B840BBA0BEE1F05
:1013300088F7E09508950E945B0A88F09F5798F01F
:10134000B92F9927B751B0F0E1F0660F771F881FCA
:10135000991F1AF0BA95C9F714C0B13091F00E94E4
:10136000750AB1E008950C94750A672F782F8827C5
:10137000B85F39F0B93FCCF3869577956795B3950B
:10138000D9F73EF490958095709561957F4F8F4F7A
:101390009F4F0895E89409C097FB3EF4909580957F
:1013A000709561957F4F8F4F9F4F9923A9F0F92F2B
:1013B00096E9BB279395F695879577956795B795A9
:1013C000F111F8CFFAF4BB0F11F460FF1BC06F5F8F
:1013D0007F4F8F4F9F4F16C0882311F096E911C0A1
:1013E000772321F09EE8872F762F05C0662371F0C2
:1013F00096E8862F70E060E02AF09A95660F771FD6
:10140000881FDAF7880F9695879597F90895990FB1
:101410000008550FAA0BE0E8FEEF16161706E807BE
:10142000F907C0F012161306E407F50798F0621BDF
:10143000730B840B950B39F40A2661F0232B242BB4
:10144000252B21F408950A2609F4A140A6958FEFD3
:10145000811D811D089597F99F6780E870E060E025
:1014600008959FEF80EC089500240A94161617063D
:1014700018060906089500240A9412161306140685
:1014800005060895092E0394000C11F4882352F0E8
:10149000BB0F40F4BF2B11F460FF04C06F5F7F4FA0
:1014A0008F4F9F4F089557FD9058440F551F59F087
:1014B0005F3F71F04795880F97FB991F61F09F3F41
:1014C00079F087950895121613061406551FF2CF6A
:1014D0004695F1DF08C0161617061806991FF1CFBA
:1014E00086957105610508940895E894BB276627E1
:1014F0007727CB0197F908950E94070A08F48FEF28
:10150000089516F00C94430B0C94310A68940C94D3
:101510002B0A0E945B0AA8F39923C1F3AEF3DF9371
:10152000CF931F930F93FF92C92FDD2788232AF0B3
:101530002197660F771F881FDAF720E030E040E838
:101540005FEB9FE3883920F0803E38F021968F775B
:101550000E94B808E8E6F0E004C00E94B808E5E997
:10156000F0E00E94510B8B01BE01EC01FB2E6F5786
:1015700071097595771F880B990B0E94CC0928E19A
:1015800032E741E35FE30E94E40AAF2D9801AE0128
:10159000FF900F911F91CF91DF910E94CF080C9483
:1015A000420A0E94E40A0C94420A0E94340A38F06B
:1015B0000E943B0A20F0952311F00C942B0A0C9406
:1015C000310A11240C94760A0E94530A70F3959FF5
:1015D000C1F3950F50E0551F629FF001729FBB272A
:1015E000F00DB11D639FAA27F00DB11DAA1F649FC6
:1015F0006627B00DA11D661F829F2227B00DA11D79
:10160000621F739FB00DA11D621F839FA00D611DFE
:10161000221F749F3327A00D611D231F849F600D1F
:10162000211D822F762F6A2F11249F5750409AF048
:10163000F1F088234AF0EE0FFF1FBB1F661F771FD4
:10164000881F91505040A9F79E3F510580F00C949F
:101650002B0A0C94760A5F3FE4F3983ED4F3869508
:1016600077956795B795F795E7959F5FC1F7FE2B3F
:10167000880F911D9695879597F908950E94070AFE
:10168000880B990B08959F3F31F0915020F4879576
:1016900077956795B795880F911D9695879597F9DA
:1016A0000895DF93CF931F930F93FF92EF92DF92F2
:1016B0007B018C01689406C0DA2EEF010E94E40AD7
:1016C000FE01E894A5912591359145915591A6F398
:1016D000EF010E94CF08FE019701A801DA9469F793
:1016E000DF90EF90FF900F911F91CF91DF910895C0
:1016F00081E090E0F8940C949F0BA1E21A2EAA1BB3
:10170000BB1BFD010DC0AA1FBB1FEE1FFF1FA217B1
:10171000B307E407F50720F0A21BB30BE40BF50BAE
:10172000661F771F881F991F1A9469F76095709537
:10173000809590959B01AC01BD01CF010895F8946F
:02174000FFCFD9
:1017420001000000000000008D0109015601340172
:101752004801D401000000008D036E616E00696EC5
:1017620066006F7666000D0A00496E736964652033
:1017720067657454656D7057697468426574610079
:101782004144432056616C75653A20005365726985
:101792006573205265736973746F723A20004E6FDD
:1017A2006D696E616C20526573697374656E6365F1
:1017B2003A2000426574612056616C75653A2000DA
:1017C2005374657020303A20005374657020313AAA
:1017D2002000537465702032202872657369737417
:1017E200616E6365293A20005374657020333A2094
:1017F200005374657020343A2000537465702035AC
:101802003A20005374657020363A20005374657094
:1018120020373A200052657475726E696E67204BEC
:10182200656C76696E2054656D703A20002C00005C
:00000001FF
