:100000000C9462000C948A000C948A000C94710485
:100010000C9471040C9471040C948A000C948A0062
:100020000C948A000C948A000C948A000C948A0028
:100030000C948A000C948A000C948A000C948A0018
:100040000C94CF030C948A000C943F040C94190474
:100050000C948A000C948A000C948A000C948A00F8
:100060000C948A000C948A0008000000BE92244977
:10007000123EABAAAA2ABECDCCCC4C3E00000080DA
:10008000BEABAAAAAA3E00000000BF000000803F4D
:100090000000000000084178D3BB4387D1133D190D
:1000A0000E3CC3BD4282AD2B3E68EC8276BED98F3A
:1000B000E1A93E4C80EFFFBE01C4FF7F3F0000007E
:1000C00000007B0411241FBECFEFD8E0DEBFCDBF00
:1000D00023E0AEE7B2E001C01D92A038B207E1F71D
:1000E00012E0A0E0B1E0E4E9F5E102C005900D9274
:1000F000AE37B107D9F710E0C2E6D0E004C02197CF
:10010000FE010E94D307C136D107C9F70E94EA0455
:100110000C94C80A0C9400003FB7F8948091AD028B
:100120009091AE02A091AF02B091B00226B5A89B0B
:1001300005C02F3F19F00196A11DB11D3FBFBA2F79
:10014000A92F982F8827820F911DA11DB11DBC01D9
:10015000CD0142E0660F771F881F991F4A95D1F79E
:1001600008958F929F92AF92BF92CF92DF92EF92BB
:10017000FF926B017C010E948C004B015C01C11459
:10018000D104E104F104F1F00E948C00DC01CB0108
:1001900088199909AA09BB09883E9340A105B105B0
:1001A00070F321E0C21AD108E108F10888EE880E48
:1001B00083E0981EA11CB11CC114D104E104F10418
:1001C00019F7DDCFFF90EF90DF90CF90BF90AF9009
:1001D0009F908F900895DC01ED91FC910190F0814A
:1001E000E02D0994CF92DF92EF92FF920F931F932D
:1001F000CF93DF936C017A018B01C0E0D0E0CE1584
:10020000DF0589F0D8016D918D01D601ED91FC914A
:100210000190F081E02DC6010995892B11F47E0132
:1002200002C02196ECCFC701DF91CF911F910F91B2
:10023000FF90EF90DF90CF900895FC01918D828D1B
:10024000981761F0828DDF01A80FB11D5D968C912A
:10025000928D9F5F9F73928F90E008958FEF9FEF35
:100260000895FC01918D828D981731F0828DE80FF1
:10027000F11D858D90E008958FEF9FEF0895FC01AB
:10028000918D228D892F90E0805C9F4F821B910978
:100290008F739927089587EB92E00E943F0121E038
:1002A000892B09F420E0822F0895FC01848DDF0161
:1002B000A80FB11DA35ABF4F2C91848D90E00196D9
:1002C0008F739927848FA689B7892C93A089B189C8
:1002D0008C9180648C93938D848D981306C00288D2
:1002E000F389E02D80818F7D80830895EF92FF92C6
:1002F0000F931F93CF93DF93EC0181E0888F9B8D49
:100300008C8D981305C0E889F989808185FD24C00A
:10031000F62E0B8D10E00F5F1F4F0F731127E02E8D
:100320008C8DE8120CC00FB607FCFACFE889F9896A
:10033000808185FFF5CFCE010E945501F1CF8B8DD5
:10034000FE01E80FF11DE35AFF4FF0820B8FEA899F
:10035000FB898081806207C0EE89FF896083E8891C
:10036000F98980818064808381E090E0DF91CF9182
:100370001F910F91FF90EF900895CF93DF93EC01C1
:10038000888D8823C9F0EA89FB89808185FD05C0B5
:10039000A889B9898C9186FD0FC00FB607FCF5CFEF
:1003A000808185FFF2CFA889B9898C9185FFEDCF37
:1003B000CE010E945501E7CFDF91CF91089580E0F3
:1003C00090E0892B29F00E944B0181110C940000D0
:1003D00008950E94A10A6115710579F0FB01019051
:1003E0000020E9F73197AF01461B570BDC01ED9177
:1003F000FC910280F381E02D099480E090E0089563
:10040000CF93DF93BC0187EB92E00E94EB01EC01FC
:100410006AE171E087EB92E00E94EB018C0F9D1F77
:10042000DF91CF910895BC0187EB92E00C94EB0132
:100430004F925F926F927F92EF92FF920F931F9372
:10044000CF93DF93CDB7DEB7A1970FB6F894DEBF99
:100450000FBECDBF7C01FA01CB0119A2223008F4F6
:100460002AE08E010F5D1F4F422E512C612C712C02
:10047000BF01A30192010E94A60AF901CA0101501D
:1004800011096A3014F4605D01C0695CD8016C9395
:10049000232B242B252B61F7B801C7010E94EB0108
:1004A000A1960FB6F894DEBF0FBECDBFDF91CF91FE
:1004B0001F910F91FF90EF907F906F905F904F9002
:1004C00008954F925F926F927F928F929F92AF9218
:1004D000BF92CF92DF92EF92FF926B017C01B42E1C
:1004E0009B01AC010E94670A882319F06DE171E05D
:1004F00027C026013701E89477F82FEF3FEF4FE749
:100500005FE7C301B2010E94670A81110DC02FEF9E
:100510003FEF4FE75FE7C301B2010E94460818169C
:100520001CF461E271E00CC02FEF3FEF4FE75FE496
:10053000C701B6010E94A509181694F465E271E09E
:1005400087EB92E0FF90EF90DF90CF90BF90AF905D
:100550009F908F907F906F905F904F900C94EB01E5
:100560002FEF3FEF4FE75FECC701B6010E9446084F
:1005700087FDE4CF20E030E0A901C701B6010E9469
:10058000460887FF0BC06DE287EB92E00E94EB000C
:100590004C01F7FAF094F7F8F09402C0812C912CFA
:1005A000A12C60E070E080E09FE3AB1441F020E01C
:1005B00030E040E251E40E944B08A394F6CF9B0147
:1005C000AC01C701B6010E94DA072B013C010E9471
:1005D000C4086B017C010E94F3089B01AC01C301BC
:1005E000B2010E94D9072B013C012AE0B701A60104
:1005F00087EB92E00E9418027C01E80CF91CBB20FA
:1006000039F06EE287EB92E00E94EB00E80EF91EF3
:10061000DB2CDD2031F120E030E040E251E4C30189
:10062000B2010E94FA092B013C010E94C4084B014F
:10063000A12CB12C2AE0B501A40187EB92E00E9425
:100640001802E80EF91EC501B4010E94F3089B01CF
:10065000AC01C301B2010E94D9072B013C01DA941D
:10066000D8CFC701FF90EF90DF90CF90BF90AF90B1
:100670009F908F907F906F905F904F900895CF9351
:10068000DF9342E00E946102EC016AE171E087EBD6
:1006900092E00E94EB018C0F9D1FDF91CF91089596
:1006A000CF92DF92EF92FF92CF93DF936C01990F7D
:1006B000EE08FF08F7FE16C06DE287EB92E00E949D
:1006C000EB00EC0144275527BA014C195D096E096E
:1006D0007F092AE087EB92E00E9418027C01EC0E71
:1006E000FD1E08C02AE0B701A60187EB92E00E9438
:1006F00018027C016AE171E087EB92E00E94EB0155
:100700008E0D9F1DDF91CF91FF90EF90DF90CF90E6
:1007100008958F929F92AF92BF92CF92DF92EF9205
:10072000FF920F931F93CF93DF937C018B016C019A
:1007300082E0C80ED11C4701E5E08E0E911CC0E09E
:10074000D0E0F60141916F0150E060E070E02AE0F6
:10075000C8010E9418025C016EE2C8010E94EB0011
:100760008A0D9B1DC80FD91FC814D90451F7F70172
:10077000458150E060E070E02AE0C8010E94180264
:100780008C0F9D1FDF91CF911F910F91FF90EF90E4
:10079000DF90CF90BF90AF909F908F9008951F9261
:1007A0000F920FB60F9211242F933F938F939F9325
:1007B000AF93BF938091A9029091AA02A091AB023E
:1007C000B091AC023091A80223E0230F2D3720F422
:1007D0000196A11DB11D05C026E8230F0296A11D9B
:1007E000B11D2093A8028093A9029093AA02A0931E
:1007F000AB02B093AC028091AD029091AE02A09199
:10080000AF02B091B0020196A11DB11D8093AD025F
:100810009093AE02A093AF02B093B002BF91AF919C
:100820009F918F913F912F910F900FBE0F901F902E
:1008300018951F920F920FB60F9211242F933F938A
:100840004F935F936F937F938F939F93AF93BF93D8
:10085000EF93FF9387EB92E00E945501FF91EF9198
:10086000BF91AF919F918F917F916F915F914F91C8
:100870003F912F910F900FBE0F901F9018951F92D0
:100880000F920FB60F9211242F938F939F93EF9394
:10089000FF93E091C702F091C8028081E091CD0200
:1008A000F091CE0282FD12C090818091D0028F5FC4
:1008B0008F732091D102821751F0E091D002F0E0C5
:1008C000E954FD4F958F8093D00201C08081FF9144
:1008D000EF919F918F912F910F900FBE0F901F90CE
:1008E00018951F920F920FB60F9211240F900FBE02
:1008F0000F901F901895E1EBF2E088E191E0918371
:1009000080831282138214821582E7EBF2E0138255
:10091000128248EE53E060E070E0448355836683C2
:10092000778328E031E03183208325EC30E0358780
:10093000248724EC30E03787268720EC30E0318BA9
:10094000208B21EC30E0338B228B22EC30E0358B96
:10095000248B26EC30E0378B268B118E128E138E73
:10096000148EE4E5F3E09183808312821382148273
:100970001582EAE5F3E09183808312821382148268
:100980001582E0E6F3E09183808312821382148261
:100990001582EEE6F3E09183808312821382148243
:1009A0001582E6E6F3E0918380831282138214823B
:1009B0001582E4E7F3E0918380831282138214822C
:1009C0001582EAE7F3E09183808312821382148216
:1009D00015820895CF93DF93CDB7DEB7789484B5B1
:1009E000826084BD84B5816084BD85B5826085BD2B
:1009F00085B5816085BD80916E00816080936E00B9
:100A000010928100809181008260809381008091AA
:100A1000810081608093810080918000816080935B
:100A200080008091B10084608093B1008091B0001B
:100A300081608093B00080917A00846080937A0016
:100A400080917A00826080937A0080917A00816040
:100A500080937A0080917A00806880937A00109267
:100A6000C100109285021092840285E090E090937C
:100A70008B0280938A0210928702109286028BEE7C
:100A80009FEFA3E9BAE380939C0290939D02A09309
:100A90009E02B0939F0283E79FE7A5E7B9E38093A7
:100AA000A0029093A102A093A202B093A30289E5B1
:100AB00097E4ACEBB3E38093A4029093A502A093D8
:100AC000A602B093A70280E090E4ACE1B6E4809384
:100AD000980290939902A0939A02B0939B0210926D
:100AE0008C0210928D0210928E0210928F02E09171
:100AF000C702F091C80282E08083E091C302F091C6
:100B0000C4021082E091C502F091C6028FEC80838E
:100B10001092CF02E091CB02F091CC0286E080836C
:100B2000E091C902F091CA02808180618083E091E6
:100B3000C902F091CA02808188608083E091C90275
:100B4000F091CA02808180688083E091C902F091AF
:100B5000CA0280818F7D8083EE24EA9433E0F32EF5
:100B600089E291E00E94000289E391E00E94000284
:100B70000DB71EB780918A0290918B02880F991F42
:100B80002DB73EB7281B390B0FB6F8943EBF0FBEEA
:100B90002DBF8DB79EB701965C014C01C12CD12CA5
:100BA00060918A0270918B02C616D70634F5909137
:100BB00086029E3008F09E509770906490937C005F
:100BC00080917A00806480937A0080917A0086FD1B
:100BD000FCCF809178002091790090E0922BF40175
:100BE000819391934F016AE070E080E090E00E9471
:100BF000B100FFEFCF1ADF0AD3CF20E030E080E072
:100C000090E0261737074CF4F501419151915F01AF
:100C1000840F951F2F5F3F4FF4CF0E94AB074B010E
:100C200089E491E00E941302C4010E945003809164
:100C30008402882309F46FC0C701B4010E94AB0786
:100C400061507109072E000C880B990B0E94F50862
:100C50009B01AC01609198027091990280919A0277
:100C600090919B020E944B080E94BD08072E000C29
:100C7000880B990B20919002309191024091920241
:100C8000509193020E94A60ACA01B9010E94F3087A
:100C90000E94B2094B015C01809188029091890207
:100CA000BC01990F880B990B0E94F5089B01AC01C0
:100CB000C501B4010E944B084B015C0123E333E9F9
:100CC00048E853E4609194027091950280919602F5
:100CD000909197020E94DA079B01AC0160E070E0FE
:100CE00080E89FE30E944B089B01AC01C501B40161
:100CF0000E94DA074B015C01809185028111B1C02D
:100D0000A501940160E070E080E89FE30E944B0839
:100D10004B015C01A6C087E591E00E940002C4017E
:100D20000E9450038DE991E00E94130260919802A5
:100D30007091990280919A0290919B020E943F03C8
:100D400080918502092C000CAA08BB08882319F1A0
:100D50008AEB91E00E940002C501B4010E94F508EF
:100D60009B01AC0160E070E080E894E40E944B08D5
:100D700020E030E040E85FE30E94D9079B01AC012E
:100D8000609198027091990280919A0290919B02D1
:100D90000E944B0820C087ED91E00E940002C5012F
:100DA000B4010E94F5089B01AC0160E070E080E8AE
:100DB00094E40E944B0820E030E040E85FE30E94AA
:100DC000D907209198023091990240919A0250914E
:100DD0009B020E94FA090E94B2094B015C0186EF56
:100DE00091E00E941302C501B4010E943F032091CB
:100DF000A4023091A5024091A6025091A702C5011C
:100E0000B4010E94FA09A50194010E94FA092091F7
:100E1000A0023091A1024091A2025091A3020E942F
:100E2000DA07A50194010E94FA0920919C023091F1
:100E30009D0240919E0250919F020E94DA079B0101
:100E4000AC0160E070E080E89FE30E944B084B013A
:100E50005C0182E192E00E941302C501B4010E948C
:100E60003F0320918C0230918D0240918E0250916F
:100E70008F02C501B4010E94DA070FB6F8941EBFB5
:100E80000FBE0DBF23E333E948E853E40E94D907BE
:100E90004B015C018DE292E00E94130242E0C50129
:100EA000B4010E94610288E392E00E94000282E4A1
:100EB00092E00E94130242E0C501B4010E94610267
:100EC0008EE492E00E94130220E030E040E151E421
:100ED000C501B4010E94FA0920E030E040EA50E484
:100EE0000E944B0820E030E040E052E40E94DA0724
:100EF0004B015C0142E00E9461028AE592E00E949F
:100F000000028092800290928102A0928202B092AE
:100F1000830287E692E00E94130260918002709142
:100F20008102809182029091830242E00E946102DC
:100F300087E391E00E9400026AE171E087EB92E0B2
:100F40000E94EB0168E873E180E090E00E94B1004C
:100F50000E94DF0105CE97FB072E16F4009407D000
:100F600077FD09D00E94BF0707FC05D03EF490959D
:100F700081959F4F0895709561957F4F0895AA1BA5
:100F8000BB1B51E107C0AA1FBB1FA617B70710F074
:100F9000A61BB70B881F991F5A95A9F780959095A6
:100FA000BC01CD010895EE0FFF1F0590F491E02DD7
:100FB00009945058BB27AA270E94F1070C946B098B
:100FC0000E945D0938F00E94640920F039F49F3FC7
:100FD00019F426F40C945A090EF4E095E7FB0C94EE
:100FE0005409E92F0E947C0958F3BA176207730766
:100FF0008407950720F079F4A6F50C949E090EF469
:10100000E0950B2EBA2FA02D0B01B90190010C0118
:10101000CA01A0011124FF27591B99F0593F50F430
:10102000503E68F11A16F040A22F232F342F442788
:10103000585FF3CF469537952795A795F040539580
:10104000C9F77EF41F16BA0B620B730B840BBAF050
:101050009150A1F0FF0FBB1F661F771F881FC2F7BB
:101060000EC0BA0F621F731F841F48F487957795CF
:101070006795B795F7959E3F08F0B0CF9395880F89
:1010800008F09927EE0F9795879508950E943009EB
:1010900008F481E008950E945F080C946B090E9497
:1010A000640958F00E945D0940F029F45F3F29F07F
:1010B0000C94540951110C949F090C945A090E94E4
:1010C0007C0968F39923B1F3552391F3951B550BD4
:1010D000BB27AA2762177307840738F09F5F5F4F0B
:1010E000220F331F441FAA1FA9F335D00E2E3AF04A
:1010F000E0E832D091505040E695001CCAF72BD062
:10110000FE2F29D0660F771F881FBB1F26173707B2
:101110004807AB07B0E809F0BB0B802DBF01FF27E4
:1011200093585F4F3AF09E3F510578F00C94540964
:101130000C949F095F3FE4F3983ED4F3869577952E
:101140006795B795F7959F5FC9F7880F911D96959D
:10115000879597F90895E1E0660F771F881FBB1FF9
:10116000621773078407BA0720F0621B730B840BA6
:10117000BA0BEE1F88F7E09508950E94C4086894A2
:10118000B1110C949F0908950E94840988F09F571B
:1011900098F0B92F9927B751B0F0E1F0660F771F9B
:1011A000881F991F1AF0BA95C9F714C0B13091F091
:1011B0000E949E09B1E008950C949E09672F782F34
:1011C0008827B85F39F0B93FCCF386957795679556
:1011D000B395D9F73EF490958095709561957F4FC2
:1011E0008F4F9F4F0895E89409C097FB3EF4909568
:1011F0008095709561957F4F8F4F9F4F9923A9F0F0
:10120000F92F96E9BB279395F6958795779567957E
:10121000B795F111F8CFFAF4BB0F11F460FF1BC0C2
:101220006F5F7F4F8F4F9F4F16C0882311F096E955
:1012300011C0772321F09EE8872F762F05C0662303
:1012400071F096E8862F70E060E02AF09A95660FBC
:10125000771F881FDAF7880F9695879597F9089575
:10126000990F0008550FAA0BE0E8FEEF16161706B7
:10127000E807F907C0F012161306E407F50798F01F
:10128000621B730B840B950B39F40A2661F0232B38
:10129000242B252B21F408950A2609F4A140A695B4
:1012A0008FEF811D811D089597F99F6780E870E099
:1012B00060E008959FEF80EC089500240A941616CC
:1012C000170618060906089500240A941216130634
:1012D000140605060895092E0394000C11F48823C2
:1012E00052F0BB0F40F4BF2B11F460FF04C06F5FDE
:1012F0007F4F8F4F9F4F089557FD9058440F551FB4
:1013000059F05F3F71F04795880F97FB991F61F087
:101310009F3F79F087950895121613061406551FFE
:10132000F2CF4695F1DF08C0161617061806991F6A
:10133000F1CF86957105610508940895E894BB275F
:1013400066277727CB0197F908950E94300908F4A2
:101350008FEF089516F00C946C0A0C945A09689457
:101360000C9454090E948409A8F39923C1F3AEF3A5
:10137000DF93CF931F930F93FF92C92FDD2788230D
:101380002AF02197660F771F881FDAF720E030E0F8
:1013900040E85FEB9FE3883920F0803E38F02196EB
:1013A0008F770E94DA07E8E6F0E004C00E94DA07CF
:1013B000E5E9F0E00E947A0A8B01BE01EC01FB2E08
:1013C0006F5771097595771F880B990B0E94F50867
:1013D00028E132E741E35FE30E940D0AAF2D980157
:1013E000AE01FF900F911F91CF91DF910E94F10705
:1013F0000C946B090E940D0A0C946B090E945D0904
:1014000038F00E94640920F0952311F00C945409DF
:101410000C945A0911240C949F090E947C0970F3C2
:10142000959FC1F3950F50E0551F629FF001729F89
:10143000BB27F00DB11D639FAA27F00DB11DAA1F98
:10144000649F6627B00DA11D661F829F2227B00DE5
:10145000A11D621F739FB00DA11D621F839FA00D70
:10146000611D221F749F3327A00D611D231F849FC0
:10147000600D211D822F762F6A2F11249F57504017
:101480009AF0F1F088234AF0EE0FFF1FBB1F661F92
:10149000771F881F91505040A9F79E3F510580F05B
:1014A0000C9454090C949F095F3FE4F3983ED4F3E5
:1014B000869577956795B795F795E7959F5FC1F7FF
:1014C000FE2B880F911D9695879597F908950E9498
:1014D0003009880B990B08959F3F31F0915020F40B
:1014E000879577956795B795880F911D9695879500
:1014F00097F90895DF93CF931F930F93FF92EF9285
:10150000DF927B018C01689406C0DA2EEF010E9405
:101510000D0AFE01E894A5912591359145915591CB
:10152000A6F3EF010E94F107FE019701A801DA94EA
:1015300069F7DF90EF90FF900F911F91CF91DF91AE
:10154000089581E090E0F8940C94C80AA1E21A2E64
:10155000AA1BBB1BFD010DC0AA1FBB1FEE1FFF1F57
:10156000A217B307E407F50720F0A21BB30BE40BA7
:10157000F50B661F771F881F991F1A9469F76095EE
:101580007095809590959B01AC01BD01CF010895A8
:04159000F894FFCFFD
:1015940001000000000000007601F2003F011D017F
:1015A4003101BD010000000089030D0A006E616E67
:1015B40000696E66006F766600496E736964652023
:1015C40067657454656D704600496E73696465207F
:1015D40067657454656D70430041444320417665EA
:1015E400726167653A2000496E73696465206765B6
:1015F4007454656D7057697468537465696E686175
:101604007274486172642066756E6374696F6E2EBD
:1016140020546865204144432076616C75652070D0
:10162400617373656420696E206973200053657269
:101634006965732052656973746F72206973206CD5
:10164400697374656420617420005573696E672042
:1016540070756C6C2D757020636F6E66696775723A
:101664006174696F6E2E005573696E672070756CB6
:101674006C2D646F776E20636F6E66696775726137
:1016840074696F6E2E00537465702031206F6E651F
:10169400206F662063616C63756C6174696F6E3A68
:1016A400200052657475726E696E672074656D7082
:1016B40020696E204B656C76696E3A200052657421
:1016C40075726E696E6720002043656C636975737B
:1016D4002E00436F6E76657274696E672000204B2E
:1016E400656C76696E20746F2000204661687265AF
:1016F4006E686569742E00416D6269656E7420546C
:0E170400656D70657261747572653A20000043
:00000001FF
